{"contracts/SupplyChain.sol":{"SupplyChain":{"abi":[{"anonymous":false,"inputs":[{"indexed":false,"internalType":"string","name":"id","type":"string"},{"indexed":false,"internalType":"string","name":"productId","type":"string"},{"indexed":false,"internalType":"string","name":"location","type":"string"},{"indexed":false,"internalType":"string","name":"quantity","type":"string"},{"indexed":true,"internalType":"address","name":"user","type":"address"}],"name":"InventoryUpdated","type":"event"},{"anonymous":false,"inputs":[{"indexed":false,"internalType":"string","name":"id","type":"string"},{"indexed":false,"internalType":"string","name":"name","type":"string"},{"indexed":false,"internalType":"string","name":"category","type":"string"},{"indexed":true,"internalType":"address","name":"user","type":"address"}],"name":"ProductCreated","type":"event"},{"inputs":[{"internalType":"string","name":"id","type":"string"},{"internalType":"string","name":"productId","type":"string"},{"internalType":"string","name":"location","type":"string"},{"internalType":"string","name":"quantity","type":"string"}],"name":"logInventory","outputs":[],"stateMutability":"nonpayable","type":"function"},{"inputs":[{"internalType":"string","name":"id","type":"string"},{"internalType":"string","name":"name","type":"string"},{"internalType":"string","name":"category","type":"string"}],"name":"logProduct","outputs":[],"stateMutability":"nonpayable","type":"function"}],"evm":{"bytecode":{"linkReferences":{},"object":"608060405234801561001057600080fd5b5061055e806100206000396000f3fe608060405234801561001057600080fd5b50600436106100365760003560e01c80633c31b4ae1461003b578063fc52033214610057575b600080fd5b6100556004803603810190610050919061027e565b610073565b005b610071600480360381019061006c9190610325565b6100ca565b005b3373ffffffffffffffffffffffffffffffffffffffff167fb7cb2992c34f88a52bd76f00c3856a35fca93c0e87e45558db3cdce3119f63508484846040516100bd9392919061047b565b60405180910390a2505050565b3373ffffffffffffffffffffffffffffffffffffffff167ffb7a3a21376d2ca73228eda525333eaf6c88e311a8e8d79429b787d1d68ca99f8585858560405161011694939291906104c7565b60405180910390a250505050565b6000604051905090565b600080fd5b600080fd5b600080fd5b600080fd5b6000601f19601f8301169050919050565b7f4e487b7100000000000000000000000000000000000000000000000000000000600052604160045260246000fd5b61018b82610142565b810181811067ffffffffffffffff821117156101aa576101a9610153565b5b80604052505050565b60006101bd610124565b90506101c98282610182565b919050565b600067ffffffffffffffff8211156101e9576101e8610153565b5b6101f282610142565b9050602081019050919050565b82818337600083830152505050565b600061022161021c846101ce565b6101b3565b90508281526020810184848401111561023d5761023c61013d565b5b6102488482856101ff565b509392505050565b600082601f83011261026557610264610138565b5b813561027584826020860161020e565b91505092915050565b6000806000606084860312156102975761029661012e565b5b600084013567ffffffffffffffff8111156102b5576102b4610133565b5b6102c186828701610250565b935050602084013567ffffffffffffffff8111156102e2576102e1610133565b5b6102ee86828701610250565b925050604084013567ffffffffffffffff81111561030f5761030e610133565b5b61031b86828701610250565b9150509250925092565b6000806000806080858703121561033f5761033e61012e565b5b600085013567ffffffffffffffff81111561035d5761035c610133565b5b61036987828801610250565b945050602085013567ffffffffffffffff81111561038a57610389610133565b5b61039687828801610250565b935050604085013567ffffffffffffffff8111156103b7576103b6610133565b5b6103c387828801610250565b925050606085013567ffffffffffffffff8111156103e4576103e3610133565b5b6103f087828801610250565b91505092959194509250565b600081519050919050565b600082825260208201905092915050565b60005b8381101561043657808201518184015260208101905061041b565b60008484015250505050565b600061044d826103fc565b6104578185610407565b9350610467818560208601610418565b61047081610142565b840191505092915050565b600060608201905081810360008301526104958186610442565b905081810360208301526104a98185610442565b905081810360408301526104bd8184610442565b9050949350505050565b600060808201905081810360008301526104e18187610442565b905081810360208301526104f58186610442565b905081810360408301526105098185610442565b9050818103606083015261051d8184610442565b90509594505050505056fea26469706673582212204b571de15b2cd59468b1fa229f3021338c9d2a2759a75a79e5feca03bb51906964736f6c63430008140033","opcodes":"PUSH1 0x80 PUSH1 0x40 MSTORE CALLVALUE DUP1 ISZERO PUSH2 0x10 JUMPI PUSH1 0x0 DUP1 REVERT JUMPDEST POP PUSH2 0x55E DUP1 PUSH2 0x20 PUSH1 0x0 CODECOPY PUSH1 0x0 RETURN INVALID PUSH1 0x80 PUSH1 0x40 MSTORE CALLVALUE DUP1 ISZERO PUSH2 0x10 JUMPI PUSH1 0x0 DUP1 REVERT JUMPDEST POP PUSH1 0x4 CALLDATASIZE LT PUSH2 0x36 JUMPI PUSH1 0x0 CALLDATALOAD PUSH1 0xE0 SHR DUP1 PUSH4 0x3C31B4AE EQ PUSH2 0x3B JUMPI DUP1 PUSH4 0xFC520332 EQ PUSH2 0x57 JUMPI JUMPDEST PUSH1 0x0 DUP1 REVERT JUMPDEST PUSH2 0x55 PUSH1 0x4 DUP1 CALLDATASIZE SUB DUP2 ADD SWAP1 PUSH2 0x50 SWAP2 SWAP1 PUSH2 0x27E JUMP JUMPDEST PUSH2 0x73 JUMP JUMPDEST STOP JUMPDEST PUSH2 0x71 PUSH1 0x4 DUP1 CALLDATASIZE SUB DUP2 ADD SWAP1 PUSH2 0x6C SWAP2 SWAP1 PUSH2 0x325 JUMP JUMPDEST PUSH2 0xCA JUMP JUMPDEST STOP JUMPDEST CALLER PUSH20 0xFFFFFFFFFFFFFFFFFFFFFFFFFFFFFFFFFFFFFFFF AND PUSH32 0xB7CB2992C34F88A52BD76F00C3856A35FCA93C0E87E45558DB3CDCE3119F6350 DUP5 DUP5 DUP5 PUSH1 0x40 MLOAD PUSH2 0xBD SWAP4 SWAP3 SWAP2 SWAP1 PUSH2 0x47B JUMP JUMPDEST PUSH1 0x40 MLOAD DUP1 SWAP2 SUB SWAP1 LOG2 POP POP POP JUMP JUMPDEST CALLER PUSH20 0xFFFFFFFFFFFFFFFFFFFFFFFFFFFFFFFFFFFFFFFF AND PUSH32 0xFB7A3A21376D2CA73228EDA525333EAF6C88E311A8E8D79429B787D1D68CA99F DUP6 DUP6 DUP6 DUP6 PUSH1 0x40 MLOAD PUSH2 0x116 SWAP5 SWAP4 SWAP3 SWAP2 SWAP1 PUSH2 0x4C7 JUMP JUMPDEST PUSH1 0x40 MLOAD DUP1 SWAP2 SUB SWAP1 LOG2 POP POP POP POP JUMP JUMPDEST PUSH1 0x0 PUSH1 0x40 MLOAD SWAP1 POP SWAP1 JUMP JUMPDEST PUSH1 0x0 DUP1 REVERT JUMPDEST PUSH1 0x0 DUP1 REVERT JUMPDEST PUSH1 0x0 DUP1 REVERT JUMPDEST PUSH1 0x0 DUP1 REVERT JUMPDEST PUSH1 0x0 PUSH1 0x1F NOT PUSH1 0x1F DUP4 ADD AND SWAP1 POP SWAP2 SWAP1 POP JUMP JUMPDEST PUSH32 0x4E487B7100000000000000000000000000000000000000000000000000000000 PUSH1 0x0 MSTORE PUSH1 0x41 PUSH1 0x4 MSTORE PUSH1 0x24 PUSH1 0x0 REVERT JUMPDEST PUSH2 0x18B DUP3 PUSH2 0x142 JUMP JUMPDEST DUP2 ADD DUP2 DUP2 LT PUSH8 0xFFFFFFFFFFFFFFFF DUP3 GT OR ISZERO PUSH2 0x1AA JUMPI PUSH2 0x1A9 PUSH2 0x153 JUMP JUMPDEST JUMPDEST DUP1 PUSH1 0x40 MSTORE POP POP POP JUMP JUMPDEST PUSH1 0x0 PUSH2 0x1BD PUSH2 0x124 JUMP JUMPDEST SWAP1 POP PUSH2 0x1C9 DUP3 DUP3 PUSH2 0x182 JUMP JUMPDEST SWAP2 SWAP1 POP JUMP JUMPDEST PUSH1 0x0 PUSH8 0xFFFFFFFFFFFFFFFF DUP3 GT ISZERO PUSH2 0x1E9 JUMPI PUSH2 0x1E8 PUSH2 0x153 JUMP JUMPDEST JUMPDEST PUSH2 0x1F2 DUP3 PUSH2 0x142 JUMP JUMPDEST SWAP1 POP PUSH1 0x20 DUP2 ADD SWAP1 POP SWAP2 SWAP1 POP JUMP JUMPDEST DUP3 DUP2 DUP4 CALLDATACOPY PUSH1 0x0 DUP4 DUP4 ADD MSTORE POP POP POP JUMP JUMPDEST PUSH1 0x0 PUSH2 0x221 PUSH2 0x21C DUP5 PUSH2 0x1CE JUMP JUMPDEST PUSH2 0x1B3 JUMP JUMPDEST SWAP1 POP DUP3 DUP2 MSTORE PUSH1 0x20 DUP2 ADD DUP5 DUP5 DUP5 ADD GT ISZERO PUSH2 0x23D JUMPI PUSH2 0x23C PUSH2 0x13D JUMP JUMPDEST JUMPDEST PUSH2 0x248 DUP5 DUP3 DUP6 PUSH2 0x1FF JUMP JUMPDEST POP SWAP4 SWAP3 POP POP POP JUMP JUMPDEST PUSH1 0x0 DUP3 PUSH1 0x1F DUP4 ADD SLT PUSH2 0x265 JUMPI PUSH2 0x264 PUSH2 0x138 JUMP JUMPDEST JUMPDEST DUP2 CALLDATALOAD PUSH2 0x275 DUP5 DUP3 PUSH1 0x20 DUP7 ADD PUSH2 0x20E JUMP JUMPDEST SWAP2 POP POP SWAP3 SWAP2 POP POP JUMP JUMPDEST PUSH1 0x0 DUP1 PUSH1 0x0 PUSH1 0x60 DUP5 DUP7 SUB SLT ISZERO PUSH2 0x297 JUMPI PUSH2 0x296 PUSH2 0x12E JUMP JUMPDEST JUMPDEST PUSH1 0x0 DUP5 ADD CALLDATALOAD PUSH8 0xFFFFFFFFFFFFFFFF DUP2 GT ISZERO PUSH2 0x2B5 JUMPI PUSH2 0x2B4 PUSH2 0x133 JUMP JUMPDEST JUMPDEST PUSH2 0x2C1 DUP7 DUP3 DUP8 ADD PUSH2 0x250 JUMP JUMPDEST SWAP4 POP POP PUSH1 0x20 DUP5 ADD CALLDATALOAD PUSH8 0xFFFFFFFFFFFFFFFF DUP2 GT ISZERO PUSH2 0x2E2 JUMPI PUSH2 0x2E1 PUSH2 0x133 JUMP JUMPDEST JUMPDEST PUSH2 0x2EE DUP7 DUP3 DUP8 ADD PUSH2 0x250 JUMP JUMPDEST SWAP3 POP POP PUSH1 0x40 DUP5 ADD CALLDATALOAD PUSH8 0xFFFFFFFFFFFFFFFF DUP2 GT ISZERO PUSH2 0x30F JUMPI PUSH2 0x30E PUSH2 0x133 JUMP JUMPDEST JUMPDEST PUSH2 0x31B DUP7 DUP3 DUP8 ADD PUSH2 0x250 JUMP JUMPDEST SWAP2 POP POP SWAP3 POP SWAP3 POP SWAP3 JUMP JUMPDEST PUSH1 0x0 DUP1 PUSH1 0x0 DUP1 PUSH1 0x80 DUP6 DUP8 SUB SLT ISZERO PUSH2 0x33F JUMPI PUSH2 0x33E PUSH2 0x12E JUMP JUMPDEST JUMPDEST PUSH1 0x0 DUP6 ADD CALLDATALOAD PUSH8 0xFFFFFFFFFFFFFFFF DUP2 GT ISZERO PUSH2 0x35D JUMPI PUSH2 0x35C PUSH2 0x133 JUMP JUMPDEST JUMPDEST PUSH2 0x369 DUP8 DUP3 DUP9 ADD PUSH2 0x250 JUMP JUMPDEST SWAP5 POP POP PUSH1 0x20 DUP6 ADD CALLDATALOAD PUSH8 0xFFFFFFFFFFFFFFFF DUP2 GT ISZERO PUSH2 0x38A JUMPI PUSH2 0x389 PUSH2 0x133 JUMP JUMPDEST JUMPDEST PUSH2 0x396 DUP8 DUP3 DUP9 ADD PUSH2 0x250 JUMP JUMPDEST SWAP4 POP POP PUSH1 0x40 DUP6 ADD CALLDATALOAD PUSH8 0xFFFFFFFFFFFFFFFF DUP2 GT ISZERO PUSH2 0x3B7 JUMPI PUSH2 0x3B6 PUSH2 0x133 JUMP JUMPDEST JUMPDEST PUSH2 0x3C3 DUP8 DUP3 DUP9 ADD PUSH2 0x250 JUMP JUMPDEST SWAP3 POP POP PUSH1 0x60 DUP6 ADD CALLDATALOAD PUSH8 0xFFFFFFFFFFFFFFFF DUP2 GT ISZERO PUSH2 0x3E4 JUMPI PUSH2 0x3E3 PUSH2 0x133 JUMP JUMPDEST JUMPDEST PUSH2 0x3F0 DUP8 DUP3 DUP9 ADD PUSH2 0x250 JUMP JUMPDEST SWAP2 POP POP SWAP3 SWAP6 SWAP2 SWAP5 POP SWAP3 POP JUMP JUMPDEST PUSH1 0x0 DUP2 MLOAD SWAP1 POP SWAP2 SWAP1 POP JUMP JUMPDEST PUSH1 0x0 DUP3 DUP3 MSTORE PUSH1 0x20 DUP3 ADD SWAP1 POP SWAP3 SWAP2 POP POP JUMP JUMPDEST PUSH1 0x0 JUMPDEST DUP4 DUP2 LT ISZERO PUSH2 0x436 JUMPI DUP1 DUP3 ADD MLOAD DUP2 DUP5 ADD MSTORE PUSH1 0x20 DUP2 ADD SWAP1 POP PUSH2 0x41B JUMP JUMPDEST PUSH1 0x0 DUP5 DUP5 ADD MSTORE POP POP POP POP JUMP JUMPDEST PUSH1 0x0 PUSH2 0x44D DUP3 PUSH2 0x3FC JUMP JUMPDEST PUSH2 0x457 DUP2 DUP6 PUSH2 0x407 JUMP JUMPDEST SWAP4 POP PUSH2 0x467 DUP2 DUP6 PUSH1 0x20 DUP7 ADD PUSH2 0x418 JUMP JUMPDEST PUSH2 0x470 DUP2 PUSH2 0x142 JUMP JUMPDEST DUP5 ADD SWAP2 POP POP SWAP3 SWAP2 POP POP JUMP JUMPDEST PUSH1 0x0 PUSH1 0x60 DUP3 ADD SWAP1 POP DUP2 DUP2 SUB PUSH1 0x0 DUP4 ADD MSTORE PUSH2 0x495 DUP2 DUP7 PUSH2 0x442 JUMP JUMPDEST SWAP1 POP DUP2 DUP2 SUB PUSH1 0x20 DUP4 ADD MSTORE PUSH2 0x4A9 DUP2 DUP6 PUSH2 0x442 JUMP JUMPDEST SWAP1 POP DUP2 DUP2 SUB PUSH1 0x40 DUP4 ADD MSTORE PUSH2 0x4BD DUP2 DUP5 PUSH2 0x442 JUMP JUMPDEST SWAP1 POP SWAP5 SWAP4 POP POP POP POP JUMP JUMPDEST PUSH1 0x0 PUSH1 0x80 DUP3 ADD SWAP1 POP DUP2 DUP2 SUB PUSH1 0x0 DUP4 ADD MSTORE PUSH2 0x4E1 DUP2 DUP8 PUSH2 0x442 JUMP JUMPDEST SWAP1 POP DUP2 DUP2 SUB PUSH1 0x20 DUP4 ADD MSTORE PUSH2 0x4F5 DUP2 DUP7 PUSH2 0x442 JUMP JUMPDEST SWAP1 POP DUP2 DUP2 SUB PUSH1 0x40 DUP4 ADD MSTORE PUSH2 0x509 DUP2 DUP6 PUSH2 0x442 JUMP JUMPDEST SWAP1 POP DUP2 DUP2 SUB PUSH1 0x60 DUP4 ADD MSTORE PUSH2 0x51D DUP2 DUP5 PUSH2 0x442 JUMP JUMPDEST SWAP1 POP SWAP6 SWAP5 POP POP POP POP POP JUMP INVALID LOG2 PUSH5 0x6970667358 0x22 SLT KECCAK256 0x4B JUMPI SAR 0xE1 JUMPDEST 0x2C 0xD5 SWAP5 PUSH9 0xB1FA229F3021338C9D 0x2A 0x27 MSIZE 0xA7 GAS PUSH26 0xE5FECA03BB51906964736F6C6343000814003300000000000000 "},"methodIdentifiers":{"logInventory(string,string,string,string)":"fc520332","logProduct(string,string,string)":"3c31b4ae"}}}}}