{
  "_format": "hh-sol-artifact-1",
  "contractName": "SupplyChain",
  "sourceName": "contracts/SupplyChain.sol",
  "abi": [
    {
      "anonymous": false,
      "inputs": [
        {
          "indexed": false,
          "internalType": "string",
          "name": "id",
          "type": "string"
        },
        {
          "indexed": false,
          "internalType": "string",
          "name": "productId",
          "type": "string"
        },
        {
          "indexed": false,
          "internalType": "string",
          "name": "location",
          "type": "string"
        },
        {
          "indexed": false,
          "internalType": "string",
          "name": "quantity",
          "type": "string"
        },
        {
          "indexed": true,
          "internalType": "address",
          "name": "user",
          "type": "address"
        }
      ],
      "name": "InventoryUpdated",
      "type": "event"
    },
    {
      "anonymous": false,
      "inputs": [
        {
          "indexed": false,
          "internalType": "string",
          "name": "id",
          "type": "string"
        },
        {
          "indexed": false,
          "internalType": "string",
          "name": "name",
          "type": "string"
        },
        {
          "indexed": false,
          "internalType": "string",
          "name": "category",
          "type": "string"
        },
        {
          "indexed": true,
          "internalType": "address",
          "name": "user",
          "type": "address"
        }
      ],
      "name": "ProductCreated",
      "type": "event"
    },
    {
      "inputs": [
        {
          "internalType": "string",
          "name": "id",
          "type": "string"
        },
        {
          "internalType": "string",
          "name": "productId",
          "type": "string"
        },
        {
          "internalType": "string",
          "name": "location",
          "type": "string"
        },
        {
          "internalType": "string",
          "name": "quantity",
          "type": "string"
        }
      ],
      "name": "logInventory",
      "outputs": [],
      "stateMutability": "nonpayable",
      "type": "function"
    },
    {
      "inputs": [
        {
          "internalType": "string",
          "name": "id",
          "type": "string"
        },
        {
          "internalType": "string",
          "name": "name",
          "type": "string"
        },
        {
          "internalType": "string",
          "name": "category",
          "type": "string"
        }
      ],
      "name": "logProduct",
      "outputs": [],
      "stateMutability": "nonpayable",
      "type": "function"
    }
  ],
  "bytecode": "0x608060405234801561001057600080fd5b5061055e806100206000396000f3fe608060405234801561001057600080fd5b50600436106100365760003560e01c80633c31b4ae1461003b578063fc52033214610057575b600080fd5b6100556004803603810190610050919061027e565b610073565b005b610071600480360381019061006c9190610325565b6100ca565b005b3373ffffffffffffffffffffffffffffffffffffffff167fb7cb2992c34f88a52bd76f00c3856a35fca93c0e87e45558db3cdce3119f63508484846040516100bd9392919061047b565b60405180910390a2505050565b3373ffffffffffffffffffffffffffffffffffffffff167ffb7a3a21376d2ca73228eda525333eaf6c88e311a8e8d79429b787d1d68ca99f8585858560405161011694939291906104c7565b60405180910390a250505050565b6000604051905090565b600080fd5b600080fd5b600080fd5b600080fd5b6000601f19601f8301169050919050565b7f4e487b7100000000000000000000000000000000000000000000000000000000600052604160045260246000fd5b61018b82610142565b810181811067ffffffffffffffff821117156101aa576101a9610153565b5b80604052505050565b60006101bd610124565b90506101c98282610182565b919050565b600067ffffffffffffffff8211156101e9576101e8610153565b5b6101f282610142565b9050602081019050919050565b82818337600083830152505050565b600061022161021c846101ce565b6101b3565b90508281526020810184848401111561023d5761023c61013d565b5b6102488482856101ff565b509392505050565b600082601f83011261026557610264610138565b5b813561027584826020860161020e565b91505092915050565b6000806000606084860312156102975761029661012e565b5b600084013567ffffffffffffffff8111156102b5576102b4610133565b5b6102c186828701610250565b935050602084013567ffffffffffffffff8111156102e2576102e1610133565b5b6102ee86828701610250565b925050604084013567ffffffffffffffff81111561030f5761030e610133565b5b61031b86828701610250565b9150509250925092565b6000806000806080858703121561033f5761033e61012e565b5b600085013567ffffffffffffffff81111561035d5761035c610133565b5b61036987828801610250565b945050602085013567ffffffffffffffff81111561038a57610389610133565b5b61039687828801610250565b935050604085013567ffffffffffffffff8111156103b7576103b6610133565b5b6103c387828801610250565b925050606085013567ffffffffffffffff8111156103e4576103e3610133565b5b6103f087828801610250565b91505092959194509250565b600081519050919050565b600082825260208201905092915050565b60005b8381101561043657808201518184015260208101905061041b565b60008484015250505050565b600061044d826103fc565b6104578185610407565b9350610467818560208601610418565b61047081610142565b840191505092915050565b600060608201905081810360008301526104958186610442565b905081810360208301526104a98185610442565b905081810360408301526104bd8184610442565b9050949350505050565b600060808201905081810360008301526104e18187610442565b905081810360208301526104f58186610442565b905081810360408301526105098185610442565b9050818103606083015261051d8184610442565b90509594505050505056fea26469706673582212204b571de15b2cd59468b1fa229f3021338c9d2a2759a75a79e5feca03bb51906964736f6c63430008140033",
  "linkReferences": {},
  "deployedLinkReferences": {}
}